{
    "contractName": "Vault",
    "abi": [
        {
            "inputs": [
                {
                    "internalType": "bytes32",
                    "name": "_password",
                    "type": "bytes32"
                }
            ],
            "stateMutability": "nonpayable",
            "type": "constructor"
        },
        {
            "inputs": [
                {
                    "internalType": "bytes32",
                    "name": "_password",
                    "type": "bytes32"
                }
            ],
            "name": "addUser",
            "outputs": [],
            "stateMutability": "nonpayable",
            "type": "function"
        },
        {
            "inputs": [],
            "name": "count",
            "outputs": [
                {
                    "internalType": "uint256",
                    "name": "",
                    "type": "uint256"
                }
            ],
            "stateMutability": "view",
            "type": "function"
        },
        {
            "inputs": [
                {
                    "internalType": "uint256",
                    "name": "",
                    "type": "uint256"
                }
            ],
            "name": "data",
            "outputs": [
                {
                    "internalType": "bytes32",
                    "name": "",
                    "type": "bytes32"
                }
            ],
            "stateMutability": "view",
            "type": "function"
        },
        {
            "inputs": [
                {
                    "internalType": "uint256",
                    "name": "slot",
                    "type": "uint256"
                },
                {
                    "internalType": "uint256",
                    "name": "index",
                    "type": "uint256"
                },
                {
                    "internalType": "uint256",
                    "name": "elementSize",
                    "type": "uint256"
                }
            ],
            "name": "getArrayLocation",
            "outputs": [
                {
                    "internalType": "uint256",
                    "name": "",
                    "type": "uint256"
                }
            ],
            "stateMutability": "pure",
            "type": "function"
        },
        {
            "inputs": [],
            "name": "isTrue",
            "outputs": [
                {
                    "internalType": "bool",
                    "name": "",
                    "type": "bool"
                }
            ],
            "stateMutability": "view",
            "type": "function"
        },
        {
            "inputs": [],
            "name": "owner",
            "outputs": [
                {
                    "internalType": "address",
                    "name": "",
                    "type": "address"
                }
            ],
            "stateMutability": "view",
            "type": "function"
        },
        {
            "inputs": [],
            "name": "someConstant",
            "outputs": [
                {
                    "internalType": "uint256",
                    "name": "",
                    "type": "uint256"
                }
            ],
            "stateMutability": "view",
            "type": "function"
        },
        {
            "inputs": [],
            "name": "u16",
            "outputs": [
                {
                    "internalType": "uint16",
                    "name": "",
                    "type": "uint16"
                }
            ],
            "stateMutability": "view",
            "type": "function"
        }
    ],
    "bytecode": "6080604052607b60005560018054600160a01b6001600160a81b03199091163360ff60a01b1916171761ffff60a81b1916601f60a81b17905534801561004457600080fd5b5060405161030e38038061030e8339810160408190526100639161006b565b600255610084565b60006020828403121561007d57600080fd5b5051919050565b61027b806100936000396000f3fe608060405234801561001057600080fd5b50600436106100875760003560e01c80638da5cb5b1161005b5780638da5cb5b146100fc5780638faf850d14610127578063992ddc6f146101c4578063f0ba8440146101db57600080fd5b806274530a1461008c57806306661abd146100b55780630a6b4e06146100cc57806358251c22146100f4575b600080fd5b6001546100a090600160a01b900460ff1681565b60405190151581526020015b60405180910390f35b6100be60005481565b6040519081526020016100ac565b6001546100e190600160a81b900461ffff1681565b60405161ffff90911681526020016100ac565b6100be607b81565b60015461010f906001600160a01b031681565b6040516001600160a01b0390911681526020016100ac565b6101c2610135366004610200565b604080518082018252600680548083526020808401958652600180830184556000938452845160029093027ff652222313e28459528d920b65115c16c04f3efc82aaedc97be59f3f377c0d3f810184905587517ff652222313e28459528d920b65115c16c04f3efc82aaedc97be59f3f377c0d409091015591835260079052929020905181559151910155565b005b6100be6101d2366004610219565b60009392505050565b6100be6101e9366004610200565b600381600381106101f957600080fd5b0154905081565b60006020828403121561021257600080fd5b5035919050565b60008060006060848603121561022e57600080fd5b50508135936020830135935060409092013591905056fea2646970667358221220b1acda352c40546f1d55ed665c003e656f9fa8a69ef1693c2a56a0dfbef78e7f64736f6c634300080b0033",
    "sourcePath": "d:/du-crypto-contract/contracts/Hack_4_AccessPrivateData.sol",
    "compiler": {
        "name": "solc",
        "version": "0.8.11+commit.d7f03943"
    },
    "functionHashes": {
        "addUser(bytes32)": "8faf850d",
        "count()": "06661abd",
        "data(uint256)": "f0ba8440",
        "getArrayLocation(uint256,uint256,uint256)": "992ddc6f",
        "isTrue()": "0074530a",
        "owner()": "8da5cb5b",
        "someConstant()": "58251c22",
        "u16()": "0a6b4e06"
    },
    "gasEstimates": {
        "creation": {
            "codeDepositCost": "127000",
            "executionCost": "infinite",
            "totalCost": "infinite"
        },
        "external": {
            "addUser(bytes32)": "113067",
            "count()": "2318",
            "data(uint256)": "2472",
            "getArrayLocation(uint256,uint256,uint256)": "371",
            "isTrue()": "2317",
            "owner()": "2337",
            "someConstant()": "262",
            "u16()": "2375"
        }
    }
}