{
    "contractName": "LinearPool",
    "abi": [
        {
            "anonymous": false,
            "inputs": [
                {
                    "indexed": true,
                    "internalType": "uint256",
                    "name": "poolId",
                    "type": "uint256"
                },
                {
                    "indexed": true,
                    "internalType": "address",
                    "name": "account",
                    "type": "address"
                },
                {
                    "indexed": false,
                    "internalType": "uint256",
                    "name": "amount",
                    "type": "uint256"
                }
            ],
            "name": "LinearDeposit",
            "type": "event"
        },
        {
            "anonymous": false,
            "inputs": [
                {
                    "indexed": true,
                    "internalType": "uint256",
                    "name": "poolId",
                    "type": "uint256"
                },
                {
                    "indexed": false,
                    "internalType": "uint256",
                    "name": "APR",
                    "type": "uint256"
                }
            ],
            "name": "LinearPoolCreated",
            "type": "event"
        },
        {
            "inputs": [],
            "name": "LINEAR_MAXIMUM_DELAY_DURATION",
            "outputs": [
                {
                    "internalType": "uint64",
                    "name": "",
                    "type": "uint64"
                }
            ],
            "stateMutability": "view",
            "type": "function"
        },
        {
            "inputs": [],
            "name": "linearAcceptedToken",
            "outputs": [
                {
                    "internalType": "contract IERC20",
                    "name": "",
                    "type": "address"
                }
            ],
            "stateMutability": "view",
            "type": "function"
        },
        {
            "inputs": [],
            "name": "linearAllowEmergencyWithdraw",
            "outputs": [
                {
                    "internalType": "bool",
                    "name": "",
                    "type": "bool"
                }
            ],
            "stateMutability": "view",
            "type": "function"
        },
        {
            "inputs": [],
            "name": "linearFlexLockDuration",
            "outputs": [
                {
                    "internalType": "uint128",
                    "name": "",
                    "type": "uint128"
                }
            ],
            "stateMutability": "view",
            "type": "function"
        },
        {
            "inputs": [
                {
                    "internalType": "uint256",
                    "name": "",
                    "type": "uint256"
                },
                {
                    "internalType": "address",
                    "name": "",
                    "type": "address"
                }
            ],
            "name": "linearPendingWithdraw",
            "outputs": [
                {
                    "internalType": "uint128",
                    "name": "amount",
                    "type": "uint128"
                },
                {
                    "internalType": "uint128",
                    "name": "applicableAt",
                    "type": "uint128"
                }
            ],
            "stateMutability": "view",
            "type": "function"
        },
        {
            "inputs": [
                {
                    "internalType": "uint256",
                    "name": "",
                    "type": "uint256"
                }
            ],
            "name": "linearPoolInfo",
            "outputs": [
                {
                    "internalType": "uint128",
                    "name": "cap",
                    "type": "uint128"
                },
                {
                    "internalType": "uint128",
                    "name": "totalStaked",
                    "type": "uint128"
                },
                {
                    "internalType": "uint128",
                    "name": "minInvestment",
                    "type": "uint128"
                },
                {
                    "internalType": "uint128",
                    "name": "maxInvestment",
                    "type": "uint128"
                },
                {
                    "internalType": "uint64",
                    "name": "APR",
                    "type": "uint64"
                },
                {
                    "internalType": "uint128",
                    "name": "lockDuration",
                    "type": "uint128"
                },
                {
                    "internalType": "uint128",
                    "name": "delayDuration",
                    "type": "uint128"
                },
                {
                    "internalType": "uint128",
                    "name": "startJoinTime",
                    "type": "uint128"
                },
                {
                    "internalType": "uint128",
                    "name": "endJoinTime",
                    "type": "uint128"
                }
            ],
            "stateMutability": "view",
            "type": "function"
        },
        {
            "inputs": [],
            "name": "linearRewardDistributor",
            "outputs": [
                {
                    "internalType": "address",
                    "name": "",
                    "type": "address"
                }
            ],
            "stateMutability": "view",
            "type": "function"
        },
        {
            "inputs": [
                {
                    "internalType": "uint256",
                    "name": "",
                    "type": "uint256"
                },
                {
                    "internalType": "address",
                    "name": "",
                    "type": "address"
                }
            ],
            "name": "linearStakingData",
            "outputs": [
                {
                    "internalType": "uint128",
                    "name": "balance",
                    "type": "uint128"
                },
                {
                    "internalType": "uint128",
                    "name": "joinTime",
                    "type": "uint128"
                },
                {
                    "internalType": "uint128",
                    "name": "updateTime",
                    "type": "uint128"
                },
                {
                    "internalType": "uint128",
                    "name": "reward",
                    "type": "uint128"
                }
            ],
            "stateMutability": "view",
            "type": "function"
        }
    ],
    "bytecode": "608060405234801561001057600080fd5b506103ad806100206000396000f3fe608060405234801561001057600080fd5b50600436106100885760003560e01c80632fa8aaf21161005b5780632fa8aaf2146101b4578063a93460c8146101d8578063bd6b47a5146101fb578063d5e351841461022657600080fd5b80630d7529181461008d5780631286fbcb146100bd5780631900d1831461014257806320b66d94146101a1575b600080fd5b6001546100a0906001600160a01b031681565b6040516001600160a01b0390911681526020015b60405180910390f35b61010f6100cb366004610322565b6003602090815260009283526040808420909152908252902080546001909101546001600160801b0380831692600160801b90819004821692808316929190041684565b604080516001600160801b03958616815293851660208501529184169183019190915290911660608201526080016100b4565b610181610150366004610322565b60046020908152600092835260408084209091529082529020546001600160801b0380821691600160801b90041682565b604080516001600160801b039384168152929091166020830152016100b4565b6000546100a0906001600160a01b031681565b6005546101c890600160801b900460ff1681565b60405190151581526020016100b4565b6101e2622e248081565b60405167ffffffffffffffff90911681526020016100b4565b60055461020e906001600160801b031681565b6040516001600160801b0390911681526020016100b4565b61023961023436600461035e565b61029d565b604080516001600160801b039a8b168152988a1660208a015296891696880196909652938716606087015267ffffffffffffffff9092166080860152851660a0850152841660c0840152831660e083015291909116610100820152610120016100b4565b600281815481106102ad57600080fd5b6000918252602090912060059091020180546001820154600283015460038401546004909401546001600160801b038085169650600160801b94859004811695848216959485900482169467ffffffffffffffff85169468010000000000000000900483169382841693919092048116911689565b6000806040838503121561033557600080fd5b8235915060208301356001600160a01b038116811461035357600080fd5b809150509250929050565b60006020828403121561037057600080fd5b503591905056fea264697066735822122007c27fcf13fb094e6d418c3432a9cfefb6ba00e64612d81e2fb841119d9dc2b364736f6c634300080c0033",
    "sourcePath": "/home/le.huy.du/projects/du-crypto-contract/contracts/RedkiteClone/Staking/LinearPool.sol",
    "compiler": {
        "name": "solc",
        "version": "0.8.12+commit.f00d7308"
    },
    "functionHashes": {
        "LINEAR_MAXIMUM_DELAY_DURATION()": "a93460c8",
        "linearAcceptedToken()": "20b66d94",
        "linearAllowEmergencyWithdraw()": "2fa8aaf2",
        "linearFlexLockDuration()": "bd6b47a5",
        "linearPendingWithdraw(uint256,address)": "1900d183",
        "linearPoolInfo(uint256)": "d5e35184",
        "linearRewardDistributor()": "0d752918",
        "linearStakingData(uint256,address)": "1286fbcb"
    },
    "gasEstimates": {
        "creation": {
            "codeDepositCost": "188200",
            "executionCost": "232",
            "totalCost": "188432"
        },
        "external": {
            "LINEAR_MAXIMUM_DELAY_DURATION()": "226",
            "linearAcceptedToken()": "2393",
            "linearAllowEmergencyWithdraw()": "2327",
            "linearFlexLockDuration()": "2381",
            "linearPendingWithdraw(uint256,address)": "2727",
            "linearPoolInfo(uint256)": "13480",
            "linearRewardDistributor()": "2327",
            "linearStakingData(uint256,address)": "4915"
        }
    }
}